:100000000C945D000C94BF060C9498060C9485002B
:100010000C9485000C9485000C9485000C9485004C
:100020000C9485000C9485000C9485000C9485003C
:100030000C9485000C9485000C9485000C9485002C
:100040000C944E060C9485000C940C070C94E60658
:100050000C9485000C9485000C9485000C9485000C
:100060000C9485000C9485000000000024002700FB
:100070002A0000000000250028002B0004040404CE
:100080000404040402020202020203030303030342
:10009000010204081020408001020408102001021F
:1000A00004081020000000080002010000030407FB
:1000B00000000000000000003E0711241FBECFEF2B
:1000C000D8E0DEBFCDBF11E0A0E0B1E0EAEEF8E29B
:1000D00002C005900D92AA3FB107D9F722E0AAEF1E
:1000E000B1E001C01D92AE3EB207E1F710E0CDE5F0
:1000F000D0E004C02197FE010E946D14CC35D107D9
:10010000C9F70E9488070C9473140C94000090E0C7
:10011000FC01EC55FF4F2491FC01E057FF4F349157
:10012000FC01E458FF4FE491EE23C9F0222339F09B
:10013000233001F1A8F4213019F1223029F1F0E047
:10014000EE0FFF1FEE58FF4FA591B4918FB7F894B3
:10015000EC91611126C030953E233C938FBF0895EA
:100160002730A9F02830C9F0243049F78091800069
:100170008F7D03C0809180008F7780938000DFCFD8
:1001800084B58F7784BDDBCF84B58F7DFBCF809125
:10019000B0008F778093B000D2CF8091B0008F7D78
:1001A000F9CF3E2BDACFCF93DF9390E0FC01E057FD
:1001B000FF4F249184589F4FFC0184918823C9F0FC
:1001C00090E0880F991FFC01E859FF4FA591B49169
:1001D000FC01EE58FF4FC591D49161110DC09FB73E
:1001E000F8948C91209582238C93888128232883EE
:1001F0009FBFDF91CF910895623051F49FB7F8947B
:100200003C91822F809583238C93E8812E2BEFCF16
:100210008FB7F894EC912E2B2C938FBFEACF3FB77A
:10022000F8948091350290913602A0913702B091F6
:10023000380226B5A89B05C02F3F19F00196A11DD5
:10024000B11D3FBFBA2FA92F982F8827BC01CD0120
:10025000620F711D811D911D42E0660F771F881F7F
:10026000991F4A95D1F708958F929F92AF92BF92AE
:10027000CF92DF92EF92FF924B015C010E940F013F
:100280006B017C010E940F016C197D098E099F0989
:10029000683E734081059105A8F321E0821A910818
:1002A000A108B10888EEC80E83E0D81EE11CF11C3D
:1002B00081149104A104B10429F7FF90EF90DF901D
:1002C000CF90BF90AF909F908F90089580912E0215
:1002D00090912F02892B31F481E090E090932F02CE
:1002E00080932E0268E770E080E090E00C94340187
:1002F0000895AF92BF92CF92DF92EF92FF920F9349
:100300001F93CF93DF936C017B018B01040F151FAB
:10031000EB015E01AE18BF08C017D10759F0699113
:10032000D601ED91FC910190F081E02DC601099577
:10033000892B79F7C501DF91CF911F910F91FF9024
:10034000EF90DF90CF90BF90AF900895FC01538D58
:10035000448D252F30E0842F90E0821B930B54179F
:1003600010F0CF96089501970895FC01918D828D2C
:10037000981761F0A28DAE0FBF2FB11D5D968C91C5
:10038000928D9F5F9F73928F90E008958FEF9FEF04
:100390000895FC01918D828D981731F0828DE80FC0
:1003A000F11D858D90E008958FEF9FEF0895FC017A
:1003B000918D228D892F90E0805C9F4F821B910947
:1003C0008F739927089589E392E00E94D70121E075
:1003D000892B09F420E0822F089580E090E0892B9A
:1003E00029F00E94E30181110C9400000895FC01A2
:1003F000A48DA80FB92FB11DA35ABF4F2C91848D86
:1004000090E001968F739927848FA689B7892C93E2
:10041000A089B1898C91837080648C93938D848D35
:10042000981306C00288F389E02D80818F7D808338
:100430000895EF92FF920F931F93CF93DF93EC01F8
:1004400081E0888F9B8D8C8D98131AC0E889F9897B
:10045000808185FF15C09FB7F894EE89FF8960837E
:10046000E889F98980818370806480839FBF81E0FF
:1004700090E0DF91CF911F910F91FF90EF90089541
:10048000F62E0B8D10E00F5F1F4F0F731127E02E1C
:100490008C8D8E110CC00FB607FCFACFE889F98954
:1004A000808185FFF5CFCE010E94F701F1CFEB8D62
:1004B000EC0FFD2FF11DE35AFF4FF0829FB7F89428
:1004C0000B8FEA89FB8980818062CFCFCF93DF9346
:1004D000EC01888D8823B9F0AA89BB89E889F9895C
:1004E0008C9185FD03C0808186FD0DC00FB607FC91
:1004F000F7CF8C9185FFF2CF808185FFEDCFCE01C4
:100500000E94F701E9CFDF91CF910895089590E01F
:1005100080E00895CF92DF92EF92FF92C090FA01AF
:10052000D090FB01E090FC01F090FD0120E030E074
:1005300040EA51ECC701B6010E94B513181664F5E4
:1005400020E030E040E251ECC701B6010E94B51353
:1005500020E030E040E850E4181694F420E030E069
:1005600040EA50ECC701B6010E94B51320E030E02C
:1005700040EF51E4181624F020E030E040E251E46E
:10058000C701B6010E94BA136093FA017093FB0190
:100590008093FC019093FD0161E081E10E94D30012
:1005A00061E082E10E94D30061E083E10E94D30018
:1005B00060E084E00E94D30060E083E00E94D3000A
:1005C00060E087E00E94D30060E086E00E94D300F4
:1005D00060E085E00E94D30060E081E10E94870036
:1005E00060E082E10E94870060E083E1FF90EF908D
:1005F000DF90CF900C9487008EE480937C0062E0C3
:1006000070E080E090E00E94340180917A00806484
:1006100080937A0080917A0086FDFCCF80917800EB
:100620002091790030E0322F2227032E000C440B5A
:10063000550B282B60E070E381E190E00E944E149E
:10064000CA01B90108958F929F92AF92BF92CF9243
:10065000DF92EF92FF920F931F93CF930E94D412D9
:1006600082EF860F6E3008F0682F6770C62FC06467
:1006700000E410E0C0937C0080917A008064809355
:100680007A0080917A0086FDFCCF609178007091AD
:100690007900072E000C880B990B0E9405139B0113
:1006A000AC01C701B6010E94F1116B017C01015040
:1006B000110901F70E94FC020E94051320E030E0BE
:1006C0004AE754E40E9462122CEE31E548E950E416
:1006D0000E9462124B015C0120E030E040E85CE3E4
:1006E000C701B6010E94BA132CEE31E548E950E487
:1006F0000E94BA1320E030EC4FE754E40E946212EB
:100700009B01AC01C501B4010E94BA13CF911F91A6
:100710000F91FF90EF90DF90CF90BF90AF909F90A0
:100720008F900895CF93DF93EC0160E08E810E945B
:10073000870061E08E810E94870060E08E810E94C8
:1007400087008BE891E00197F1F7DF91CF91089551
:10075000CF92DF92EF92FF920F931F93CF93DF938D
:100760006C017C0187E0E80EF11CD0E0C0E0062FB0
:1007700010E0B8010C2E02C0759567950A94E2F757
:100780006170F70181917F010E9487002196C4303A
:10079000D10579F7C601DF91CF911F910F91FF909D
:1007A000EF90DF90CF900C949203CF92DF92EF9274
:1007B000FF920F931F93CF93DF93EC01F62E642FDC
:1007C0008C810E9487008D818F3F19F060E00E942C
:1007D00087000F2D10E08F8584FF25C06E0187E014
:1007E000C80ED11CF12CE12CB8010E2C02C075955D
:1007F00067950A94E2F76170F60181916F010E949A
:100800008700FFEFEF1AFF0A88E0E816F10461F7AE
:10081000CE01DF91CF911F910F91FF90EF90DF906C
:10082000CF900C949203B80184E0759567958A95F2
:10083000E1F7CE010E94A8036F2DCE01DF91CF9189
:100840001F910F91FF90EF90DF90CF900C94A80331
:1008500040E0682F86ED92E00C94D50381E00E9481
:1008600028048BE39FE10197F1F70895CF93DF937D
:10087000823029F49091E50298609093E50280938C
:10088000E9021092EA0280E48093EB0280E1809317
:10089000EC0280E58093ED0261E08091DA020E9433
:1008A000D3008091DB028F3F19F061E00E94D300FA
:1008B00061E08091DC020E94D300C6EDD2E09E018F
:1008C000265D32408091E50284FD0BC084E090E01B
:1008D00021962817390744F461E08E810E94D300E5
:1008E000EECF88E090E0F4CF8BE39DE00197F1F745
:1008F00060E08091DA020E94870060E08091DC0273
:100900000E9487008091DB028F3F19F060E00E9417
:1009100087008091E50284FD34C063E086ED92E0BB
:100920000E94A803CBE4D6E4CE010197F1F763E07F
:1009300086ED92E00E94A8032197F1F763E086ED2F
:1009400092E00E94A80383E592E00197F1F762E04C
:1009500086ED92E00E94A8038091E50280620E94E9
:10096000280484E08093E6028CE00E9428040E9420
:100970002E0482E08093E70286E0DF91CF910C9411
:10098000280480620E9428048BE496E40197F1F722
:100990008091E50280620E94280483E592E001973D
:1009A000F1F78091E50280620E942804D5CF9091F2
:1009B000E902691710F06FEF690FE62FF0E0EA52D5
:1009C000FD4F9489890F80680C94280441E00E94AF
:1009D000D50381E090E00895FB0101900020E9F744
:1009E0003197AF01461B570BDC01ED91FC91028062
:1009F000F381E02D09948F929F92AF92BF92EF9274
:100A0000FF920F931F93CF93DF93CDB7DEB7A197DC
:100A10000FB6F894DEBF0FBECDBF7C01FA01CB014B
:100A200019A2223008F42AE08E010F5D1F4F822E9A
:100A3000912CB12CA12CBF01A50194010E942C1472
:100A4000F901CA016A300CF5605DD8016E938D0121
:100A5000232B242B252B79F790E080E0109721F0B1
:100A6000BD01C7010E94EC04A1960FB6F894DEBF49
:100A70000FBECDBFDF91CF911F910F91FF90EF90EF
:100A8000BF90AF909F908F900895695CDECF2F92BA
:100A90003F924F925F926F927F928F929F92AF920E
:100AA000BF92CF92DF92EF92FF921F93CF93DF938B
:100AB000EC016A017B01722EAB019601CB01B601FC
:100AC0000E94271462E271E0811126C0460157019D
:100AD000E894B7F82FEF3FEF4FE75FE7C501B401A8
:100AE0000E94271481110CC02FEF3FEF4FE75FE703
:100AF000C501B4010E945D1266E271E0181664F04F
:100B00002FEF3FEF4FE75FE4C701B6010E94B51337
:100B10001816B4F46AE271E0CE01DF91CF911F9113
:100B2000FF90EF90DF90CF90BF90AF909F908F900D
:100B30007F906F905F904F903F902F900C94EC04BB
:100B40002FEF3FEF4FE75FECC701B6010E945D1248
:100B500087FDE0CF20E030E0A901C701B6010E9487
:100B60005D12312C212C87FF0DC0E881F9810190A5
:100B7000F081E02D6DE2CE0109951C01F7FAF094A9
:100B8000F7F8F09410E060E070E080E09FE3711609
:100B900041F020E030E040E251E40E9462121F5F29
:100BA000F6CFA70196010E94F1112B013C010E9492
:100BB000D4124B015C012AE0BC01A401CE010E94C9
:100BC000FB047C01E20CF31C1123E1F1C501B4012B
:100BD0000E9403139B01AC01C301B2010E94F011FA
:100BE0004B015C01E881F9810190F081E02D6EE21A
:100BF000CE010995E80EF91E115020F120E030E0F9
:100C000040E251E4C501B4010E94BA132B013C013A
:100C10000E94D4124B01B12CA12C2AE0B501A401F1
:100C2000CE010E94FB04E80EF91EC501B4010E942A
:100C300003139B01AC01C301B2010E94F0114B01EF
:100C40005C01DACFC701DF91CF911F91FF90EF9048
:100C5000DF90CF90BF90AF909F908F907F906F90DC
:100C60005F904F903F902F900895CF93DF93AB010B
:100C7000BC0122E089E392E00E944705EC016EE2AC
:100C800071E089E392E00E94EC048C0F9D1FDF91DC
:100C9000CF9108950C9447050C94EC041F920F9289
:100CA0000FB60F9211242F933F938F939F93AF937F
:100CB000BF938091310290913202A0913302B091A2
:100CC00034023091300223E0230F2D3758F501967E
:100CD000A11DB11D20933002809331029093320206
:100CE000A0933302B0933402809135029091360282
:100CF000A0913702B09138020196A11DB11D8093D9
:100D0000350290933602A0933702B0933802BF9118
:100D1000AF919F918F913F912F910F900FBE0F90A8
:100D20001F90189526E8230F0296A11DB11DD2CF62
:100D30001F920F920FB60F9211242F933F934F9350
:100D40005F936F937F938F939F93AF93BF93EF9333
:100D5000FF93E0910201F09103010995FF91EF915A
:100D6000BF91AF919F918F917F916F915F914F91C3
:100D70003F912F910F900FBE0F901F9018951F92CB
:100D80000F920FB60F9211242F933F934F935F93BF
:100D90006F937F938F939F93AF93BF93EF93FF9343
:100DA000E0910001F09101010995FF91EF91BF9150
:100DB000AF919F918F917F916F915F914F913F91F3
:100DC0002F910F900FBE0F901F9018951F920F92AA
:100DD0000FB60F9211242F933F934F935F936F930E
:100DE0007F938F939F93AF93BF93EF93FF9389E389
:100DF00092E00E94F701FF91EF91BF91AF919F9117
:100E00008F917F916F915F914F913F912F910F90B3
:100E10000FBE0F901F9018951F920F920FB60F9252
:100E200011242F938F939F93EF93FF93E0914902A7
:100E3000F0914A028081E0914F02F091500282FDD0
:100E40001BC09081809152028F5F8F73209153025B
:100E5000821741F0E0915202F0E0E75CFD4F958F80
:100E600080935202FF91EF919F918F912F910F905C
:100E70000FBE0F901F9018958081F4CFE9E3F2E048
:100E80001382128288EE93E0A0E0B0E08483958321
:100E9000A683B78388E091E09183808385EC90E01E
:100EA0009587848784EC90E09787868780EC90E034
:100EB000918B808B81EC90E0938B828B82EC90E025
:100EC000958B848B86EC90E0978B868B118E128E9F
:100ED000138E148EE6EDF2E0138212828AE191E025
:100EE0009183808388E084838FEF858389E0868384
:100EF0008AE087838BE080878CE081878DE0828722
:100F00001386148615861686178681E00C9436049F
:100F1000CF93DF9300D000D0CDB7DEB7789484B5FF
:100F2000826084BD84B5816084BD85B5826085BDE5
:100F300085B5816085BD80916E00816080936E0073
:100F40001092810080918100826080938100809165
:100F50008100816080938100809180008160809316
:100F600080008091B10084608093B1008091B000D6
:100F700081608093B00080917A00846080937A00D1
:100F800080917A00826080937A0080917A008160FB
:100F900080937A0080917A00806880937A00109222
:100FA000C100E0914902F0914A0282E08083E09121
:100FB0004502F09146021082E0914702F09148020A
:100FC0008FEC808310925102E0914D02F0914E021D
:100FD00086E08083E0914B02F0914C028081806139
:100FE0008083E0914B02F0914C0280818860808385
:100FF000E0914B02F0914C02808180688083E09107
:101000004B02F0914C0280818F7D808382E00E94B0
:10101000360486E691E0909301018093000180916F
:1010200069008C7F826080936900E89A62E082E0C8
:101030000E94D30061E081E10E94D30061E082E17F
:101040000E94D30061E083E10E94D30060E084E06D
:101050000E94D30060E083E00E94D30060E087E05C
:101060000E94D30060E086E00E94D30060E085E04B
:101070000E94D30060E081E10E94870060E082E18D
:101080000E94870060E083E10E94870010922F0297
:1010900010922E0280912E0290912F02892B09F03E
:1010A00055C00E942E0460E080E00E94D70461E3F6
:1010B00071E086ED92E00E944C0661E080E00E94C3
:1010C000D7046CE371E086ED92E00E944C0660ED7F
:1010D00077E080E090E00E9434010E942E0460E0FE
:1010E00080E00E94D70469E471E086ED92E00E94FE
:1010F0004C0661E080E00E94D70464E571E086ED73
:1011000092E00E944C0660ED77E080E090E00E9463
:1011100034010E942E0460E080E00E94D7046FE555
:1011200071E086ED92E00E944C0661E080E00E9452
:10113000D7046EE671E086ED92E00E944C0660ED09
:1011400077E080E090E00E943401A4CF61E082E18A
:101150000E94870060E083E10E94870062E370E004
:1011600080E090E00E94340160E070E080E791E46C
:101170000E9423036B017C01C0922A02D0922B02B1
:10118000E0922C02F0922D0260E082E10E94870042
:1011900061E083E10E94870062E370E080E090E01C
:1011A0000E94340160E070E080E891E40E94230333
:1011B0004B015C018092260290922702A0922802A5
:1011C000B0922902A70196010E94F0112B013C0167
:1011D00020E030E0A9010E94B513181624F077FA38
:1011E000709477F8709420E030E040E05FE3C30152
:1011F000B2010E945D1287FF17C00E942E0460E0BA
:1012000080E00E94D70467E771E086ED92E00E94DB
:101210004C0661E080E00E94D70462E871E086ED50
:1012200092E00E944C06F2C2A5019401C701B601EA
:101230000E945D1287FF7BC40E942E0460E080E064
:101240000E94D7046FE871E086ED92E00E944C06A0
:1012500061E081E10E94870061E082E10E948700F5
:1012600060E083E10E94870062E370E080E090E04C
:101270000E94340160E070E080E791E40E94230363
:101280006B017C01C0922A02D0922B02E0922C02C8
:10129000F0922D0260E070E080E891E40E94230368
:1012A000609326027093270280932802909329026C
:1012B000A70196010E94F0116B017C0120E030E053
:1012C000A9010E94B513181624F0F7FAF094F7F864
:1012D000F094C0922202D0922302E0922402F09273
:1012E000250260EE71E089E392E00E944C06409195
:1012F000220250912302609124027091250224E081
:1013000030E089E392E00E944A066AE070E080E003
:1013100090E00E94340160E081E10E94870061E07A
:1013200082E10E94870061E083E10E94870062E31E
:1013300070E080E090E00E94340160E070E080E6C0
:1013400091E40E9423036B017C01C0921E02D092A3
:101350001F02E0922002F092210260E070E080E73C
:1013600091E40E94230360932A0270932B028093DE
:101370002C0290932D02A70196010E94F0116B019F
:101380007C0120E030E0A9010E94B513181624F07A
:10139000F7FAF094F7F8F094C0921A02D0921B0278
:1013A000E0921C02F0921D0263E971E089E392E091
:1013B0000E944C0640911A0250911B0260911C023F
:1013C00070911D0224E030E089E392E00E944A0619
:1013D000C0902202D0902302E0902402F0902502D7
:1013E00080901A0290901B02A0901C02B0901D02E7
:1013F000A5019401C701B6010E94B51318160CF09F
:101400001DC26BE971E089E392E00E944C0660E046
:1014100085E00E94D70461EA71E086ED92E00E94C7
:101420004C0660E081E10E94D30060E082E10E940E
:10143000D30061E083E10E94D30061E084E00E9478
:10144000D30060E083E00E94D30060E087E00E9468
:10145000D30061E086E00E94D30060E085E00E9456
:10146000D30060E083E10E94870061E084E00E9495
:10147000870061E086E00E94870060E070E080E71E
:1014800091E40E9423036B017C01C0921E02D09262
:101490001F02E0922002F092210260E070E080E6FC
:1014A00091E40E9423034B015C0180922A029092F6
:1014B0002B02A0922C02B0922D020E94FC020E94EC
:1014C000051320E030E04AE754E40E946212A701CD
:1014D00096010E94F0116B017C01C0921602D0921D
:1014E0001702E0921802F09219020E94FC020E9478
:1014F000051320E030E04AE754E40E946212A5019F
:1015000094010E94F0116093120270931302809371
:10151000140290931502C0920E02D0920F02E09234
:101520001002F092110265EA71E089E392E00E94F4
:101530004C0640910E0250910F0260911002709182
:10154000110222E030E089E392E00E944A066CEA50
:1015500071E089E392E00E944C0626E636E646E911
:1015600050E46091120270911302809114029091E4
:1015700015020E94621260930A0270930B0280931C
:101580000C0290930D026FEA71E089E392E00E94F1
:101590004C0640910A0250910B0260910C0270912E
:1015A0000D0222E030E089E392E00E944A0666EBF9
:1015B00071E089E392E00E944C0620E030E04AE7C7
:1015C00054E460910A0270910B0280910C02909198
:1015D0000D020E94BA1320910E0230910F02409129
:1015E0001002509111020E946212609306027093E1
:1015F0000702809308029093090269EB71E089E386
:1016000092E00E944C0640910602509107026091C0
:1016100008027091090222E030E089E392E00E9422
:101620004A0661E080E00E94D7046FEB71E086ED2E
:1016300092E00E944C0661E083E00E94D704409152
:10164000060250910702609108027091090222E09F
:1016500030E086ED92E00E944A0668E873E180E09F
:1016600090E00E94340140900A0250900B0260907A
:101670000C0270900D02409202025092030260929E
:10168000040270920502C0902A02D0902B02E090D2
:101690002C02F0902D02C092FE01D092FF01E09248
:1016A0000002F092010260E084E00E94D30061E059
:1016B00087E00E94D30061E087E00E94870060E03D
:1016C00070E080E791E40E94230360931E02709310
:1016D0001F02809320029093210260E070E080E678
:1016E00091E40E9423034B015C0180922A029092B4
:1016F0002B02A0922C02B0922D020E94FC020E94AA
:10170000051320E030E04AE754E40E946212A5018C
:1017100094010E94F011609312027093130280935F
:1017200014029093150220E030E040E05FE30E9455
:10173000BA1360930A0270930B0280930C02909389
:101740000D02A30192010E94F01169837A838B83B9
:101750009C83A7019601C501B4010E94F0119B0171
:10176000AC0169817A818B819C810E9462124B015C
:101770005C01AC019B01C701B6010E94BA139B0139
:10178000AC01C301B2010E94F0119058A50194016F
:101790000E9462126093FA017093FB018093FC0136
:1017A0009093FD0162EC71E089E392E00E944C06A7
:1017B0000E948A026091FA017091FB018091FC0104
:1017C0009091FD010E94350661E080E00E94D704FF
:1017D0006AEC71E086ED92E00E944C0661E085E0E3
:1017E0000E94D7044091FA015091FB016091FC01E5
:1017F0007091FD0122E030E086ED92E00E944A0601
:1018000068E873E180E090E00E9434010E948A025F
:1018100080912E0290912F02019790932F02809336
:101820002E0280E090E0892B09F430CC0E94E30185
:10183000882309F42BCC0E94000028CCA501940138
:10184000C701B6010E945D12181604F360ED71E045
:1018500089E392E00E944C0660E085E00E94D70494
:1018600066ED71E086ED92E00E944C0661E081E158
:101870000E94D30060E082E10E94D30060E083E137
:101880000E94D30060E084E00E94D30061E083E026
:101890000E94D30060E087E00E94D30061E086E010
:1018A0000E94D30060E085E00E94D30060E081E107
:1018B0000E94870061E083E00E94870061E086E08B
:1018C0000E94870060E070E080E791E40E942303BB
:1018D0006B017C01C0921E02D0921F02E092200296
:1018E000F092210260E070E080E891E40E9423031E
:1018F0004B015C0180922A0290922B02A0922C0252
:10190000B0922D020E94FC020E94051320E030E0FC
:101910004AE754E40E946212A70196010E94F01166
:101920006B017C01C0921602D0921702E09218025D
:10193000F09219020E94FC020E94051320E030E0A0
:101940004AE754E40E946212A50194010E94F0113A
:101950006093120270931302809314029093150205
:10196000C0920E02D0920F02E0921002F092110289
:1019700065EA71E089E392E00E944C0640910E0214
:1019800050910F02609110027091110222E030E03C
:1019900089E392E00E944A066CEA71E089E392E0F2
:1019A0000E944C0626E636E646E950E460911202B3
:1019B0007091130280911402909115020E9462129C
:1019C00060930A0270930B0280930C0290930D02B5
:1019D0006FEA71E089E392E00E944C0640910A02AE
:1019E00050910B0260910C0270910D0222E030E0E8
:1019F00089E392E00E944A0666EB71E089E392E097
:101A00000E944C0620E030E04AE754E460910A026C
:101A100070910B0280910C0290910D020E94BA13FA
:101A200020910E0230910F0240911002509111024C
:101A30000E9462126093060270930702809308026C
:101A40009093090269EB71E089E392E00E944C06F1
:101A500040910602509107026091080270910902BC
:101A600022E030E089E392E00E944A0661E080E0F3
:101A70000E94D7046FEB71E086ED92E00E944C0665
:101A800061E083E00E94D704409106025091070272
:101A9000609108027091090222E030E086ED92E048
:101AA0000E944A0668E873E180E090E00E943401F9
:101AB00040900A0250900B0260900C0270900D0250
:101AC0004092020250920302609204027092050258
:101AD000C0902A02D0902B02E0902C02F0902D02B0
:101AE000C092FE01D092FF01E0920002F09201024A
:101AF00060E083E00E94D30061E085E00E94D300B3
:101B000061E085E00E94870060E070E080E791E49A
:101B10000E94230360931E0270931F028093200291
:101B20009093210260E070E080E891E4DACDA501B5
:101B30009401C701B6010E94B51318160CF05FCBD3
:101B40000E942E0460E080E00E94D7046AED71E0FC
:101B500086ED92E00E944C0661E081E10E948700E0
:101B600060E082E10E94870060E083E10E948700DC
:101B700062E370E080E090E00E94340160E070E099
:101B800080E791E40E9423036B017C01C0922A024A
:101B9000D0922B02E0922C02F0922D0260E070E0D5
:101BA00080E691E40E94230360931E0270931F025B
:101BB0008093200290932102A70196010E94F011C8
:101BC0006B017C0120E030E0A9010E94B5131816DA
:101BD00024F0F7FAF094F7F8F094C0922202D09231
:101BE0002302E0922402F092250265E971E089E384
:101BF00092E00E944C064091220250912302609193
:101C000024027091250224E030E089E392E00E94F2
:101C10004A066AE070E080E090E00E94340160E0F3
:101C200081E10E94870060E082E10E94870061E01C
:101C300083E10E94870062E370E080E090E00E9410
:101C4000340160E070E080E891E40E9423036B01BE
:101C50007C01C0922602D0922702E0922802F092E4
:101C6000290260E070E080E791E40E942303609322
:101C70002A0270932B0280932C0290932D02A701CD
:101C800096010E94F0116B017C0120E030E0A90177
:101C90000E94B513181624F0F7FAF094F7F8F094B0
:101CA000C0921A02D0921B02E0921C02F0921D0216
:101CB0006EED71E089E392E00E944C0640911A02B9
:101CC00050911B0260911C0270911D0224E030E0D3
:101CD00089E392E00E944A06C0902202D09023023B
:101CE000E0902402F090250280901A0290901B024E
:101CF000A0901C02B0901D02A5019401C701B6017D
:101D00000E94B51318160CF0B5C166EE71E089E3B8
:101D100092E00E944C0660E085E00E94D70466EDE8
:101D200071E086ED92E00E944C0660E081E10E9445
:101D3000D30060E082E10E94D30061E083E10E9471
:101D4000D30061E084E00E94D30060E083E00E9461
:101D5000D30060E087E00E94D30061E086E00E944B
:101D6000D30060E085E00E94D30060E083E10E9440
:101D7000870061E084E00E94870060E086E00E94C6
:101D8000870060E070E080E791E40E9423036B012C
:101D90007C01C0921E02D0921F02E0922002F092BB
:101DA000210260E070E080E691E40E9423034B0191
:101DB0005C0180922A0290922B02A0922C02B09297
:101DC0002D02C0921602D0921702E0921802F092F1
:101DD00019020E94FC020E94051320E030E04AE74D
:101DE00054E40E946212A50194010E94F0116093D4
:101DF0001202709313028093140290931502C09202
:101E00000E02D0920F02E0921002F092110265EAE7
:101E100071E089E392E00E944C0640910E025091DD
:101E20000F02609110027091110222E030E089E30C
:101E300092E00E944A066CEA71E089E392E00E9417
:101E40004C0626E636E646E950E4609112027091AF
:101E5000130280911402909115020E946212609305
:101E60000A0270930B0280930C0290930D026FEAAA
:101E700071E089E392E00E944C0640910A02509181
:101E80000B0260910C0270910D0222E030E089E3B8
:101E900092E00E944A0666EB71E089E392E00E94BC
:101EA0004C0620E030E04AE754E460910A02709169
:101EB0000B0280910C0290910D020E94BA132091A6
:101EC0000E0230910F0240911002509111020E94B7
:101ED0006212609306027093070280930802909347
:101EE000090269EB71E089E392E00E944C0640919F
:101EF000060250910702609108027091090222E0E7
:101F000030E089E392E00E944A0661E080E00E94AE
:101F1000D7046FEB71E086ED92E00E944C0661E021
:101F200083E00E94D704409106025091070260911D
:101F300008027091090222E030E086ED92E00E94F2
:101F40004A0668E873E180E090E00E943401409026
:101F50000A0250900B0260900C0270900D024092A9
:101F60000202509203026092040270920502C09035
:101F70002A02D0902B02E0902C02F0902D02C09209
:101F8000FE01D092FF01E0920002F092010260E0B7
:101F900084E00E94D30061E087E00E94D30061E00A
:101FA00087E00E94870060E070E080E791E40E9493
:101FB000230360931E0270931F028093200290936C
:101FC000210260E070E080E891E40E9423034B016D
:101FD0005C0180922A0290922B02A0922C02B09275
:101FE0002D020E94FC020E94051320E030E04AE727
:101FF00054E40E946212A50194010E94F0116093C2
:10200000120270931302809314029093150220E041
:1020100030E040E05FE30E94BA1360930A027093DD
:102020000B0280930C0290930D02A30192010E9477
:10203000F01169837A838B839C83A7019601C50184
:10204000B4010E94F0119B01AC0169817A818B81FE
:102050009C810E9462124B015C01AC019B01C70193
:10206000B6010E94BA139B01AC01C301B2010E94E8
:10207000F0118CCBA5019401C701B6010E945D123D
:1020800018160CF4C3CB60EF71E089E392E00E9474
:102090004C0660E085E00E94D70461EA71E086EDBD
:1020A00092E00E944C0661E081E10E94D30060E072
:1020B00082E10E94D30060E083E10E94D30060E0EF
:1020C00084E00E94D30061E083E00E94D30060E0DE
:1020D00087E00E94D30061E086E00E94D30060E0C8
:1020E00085E00E94D30060E081E10E94870061E00A
:1020F00083E00E94870060E086E00E94870060E045
:1021000070E080E791E40E9423036B017C01C092A0
:102110001E02D0921F02E0922002F092210260E0A3
:1021200070E080E891E40E9423039B01AC012093BE
:102130002A0230932B0240932C0250932D02C0921E
:102140001602D0921702E0921802F09219026CEE79
:1021500071E588E990E40E94F01160931202709397
:1021600013028093140290931502C0920E02D09233
:102170000F02E0921002F092110265EA71E089E329
:1021800092E00E944C0640910E0250910F02609125
:1021900010027091110222E030E089E392E00E9487
:1021A0004A066CEA71E089E392E00E944C0626E65A
:1021B00036E646E950E46091120270911302809174
:1021C0001402909115020E94621260930A027093A9
:1021D0000B0280930C0290930D026FEA71E089E389
:1021E00092E00E944C0640910A0250910B026091CD
:1021F0000C0270910D0222E030E089E392E00E942F
:102200004A0666EB71E089E392E00E944C0620E00A
:1022100030E04AE754E460910A0270910B02809129
:102220000C0290910D020E94BA1320910E0230917F
:102230000F0240911002509111020E9462126093AD
:10224000060270930702809308029093090269EBDB
:1022500071E089E392E00E944C06409106025091A1
:102260000702609108027091090222E030E089E3E0
:1022700092E00E944A0661E080E00E94D7046FEB82
:1022800071E086ED92E00E944C0661E083E00E94DE
:10229000D7044091060250910702609108027091A4
:1022A000090222E030E086ED92E00E944A0668E8EA
:1022B00073E180E090E00E943401C0900A02D09067
:1022C0000B02E0900C02F0900D02C0920202D0923C
:1022D0000302E0920402F092050240902A0250901C
:1022E0002B0260902C0270902D024092FE015092C1
:1022F000FF01609200027092010260E083E00E94A0
:10230000D30061E085E00E94D30061E085E00E9497
:10231000870060E070E080E791E40E94230360930F
:102320001E0270931F02809320029093210260E0AE
:1023300070E080E891E40E9423034B015C018092ED
:102340002A0290922B02A0922C02B0922D020E949F
:10235000FC020E94051320E030E04AE754E40E94AA
:102360006212A50194010E94F01160931202709311
:102370001302809314029093150220E030E040E0B5
:102380005FE30E94BA139B01AC0120930A023093D1
:102390000B0240930C0250930D02C701B6010E943C
:1023A000F11169837A838B839C83A3019201C50118
:1023B000B4010E94F0119B01AC0169817A818B818B
:1023C0009C810E9462124B015C01AC019B01C30124
:1023D000B2010E94BA139B01AC01C701B60147CEFE
:1023E0005058BB27AA270E9408120C947B130E9406
:1023F0006D1338F00E94741320F039F49F3F19F4E4
:1024000026F40C946A130EF4E095E7FB0C94641325
:10241000E92F0E948C1358F3BA17620773078407D9
:10242000950720F079F4A6F50C94AE130EF4E09520
:102430000B2EBA2FA02D0B01B90190010C01CA017E
:10244000A0011124FF27591B99F0593F50F4503E29
:1024500068F11A16F040A22F232F342F4427585F1B
:10246000F3CF469537952795A795F0405395C9F733
:102470007EF41F16BA0B620B730B840BBAF09150EB
:10248000A1F0FF0FBB1F661F771F881FC2F70EC08A
:10249000BA0F621F731F841F48F48795779567955D
:1024A000B795F7959E3F08F0B0CF9395880F08F049
:1024B0009927EE0F9795879508950E94401308F489
:1024C00081E008950E9476120C947B130E9474138D
:1024D00058F00E946D1340F029F45F3F29F00C94EE
:1024E000641351110C94AF130C946A130E948C1353
:1024F00068F39923B1F3552391F3951B550BBB2733
:10250000AA2762177307840738F09F5F5F4F220F77
:10251000331F441FAA1FA9F335D00E2E3AF0E0E86E
:1025200032D091505040E695001CCAF72BD0FE2FB8
:1025300029D0660F771F881FBB1F2617370748074C
:10254000AB07B0E809F0BB0B802DBF01FF27935804
:102550005F4F3AF09E3F510578F00C9464130C9451
:10256000AF135F3FE4F3983ED4F386957795679574
:10257000B795F7959F5FC9F7880F911D9695879539
:1025800097F90895E1E0660F771F881FBB1F621758
:1025900073078407BA0720F0621B730B840BBA0B16
:1025A000EE1F88F7E09508950E94941388F09F57D6
:1025B00098F0B92F9927B751B0F0E1F0660F771F67
:1025C000881F991F1AF0BA95C9F714C0B13091F05D
:1025D0000E94AE13B1E008950C94AE13672F782FCC
:1025E0008827B85F39F0B93FCCF386957795679522
:1025F000B395D9F73EF490958095709561957F4F8E
:102600008F4F9F4F0895E89409C097FB3EF4909533
:102610008095709561957F4F8F4F9F4F9923A9F0BB
:10262000F92F96E9BB279395F6958795779567954A
:10263000B795F111F8CFFAF4BB0F11F460FF1BC08E
:102640006F5F7F4F8F4F9F4F16C0882311F096E921
:1026500011C0772321F09EE8872F762F05C06623CF
:1026600071F096E8862F70E060E02AF09A95660F88
:10267000771F881FDAF7880F9695879597F9089541
:10268000990F0008550FAA0BE0E8FEEF1616170683
:10269000E807F907C0F012161306E407F50798F0EB
:1026A000621B730B840B950B39F40A2661F0232B04
:1026B000242B252B21F408950A2609F4A140A69580
:1026C0008FEF811D811D089597F99F6780E870E065
:1026D00060E008959FEF80EC089500240A94161698
:1026E000170618060906089500240A941216130600
:1026F000140605060895092E0394000C11F488238E
:1027000052F0BB0F40F4BF2B11F460FF04C06F5FA9
:102710007F4F8F4F9F4F089557FD9058440F551F7F
:1027200059F05F3F71F04795880F97FB991F61F053
:102730009F3F79F087950895121613061406551FCA
:10274000F2CF4695F1DF08C0161617061806991F36
:10275000F1CF86957105610508940895E894BB272B
:1027600066277727CB0197F908950E94401308F454
:102770008FEF08950E94CD130C947B130E946D136C
:1027800038F00E94741320F0952311F00C94641318
:102790000C946A1311240C94AF130E948C1370F3E1
:1027A000959FC1F3950F50E0551F629FF001729FF6
:1027B000BB27F00DB11D639FAA27F00DB11DAA1F05
:1027C000649F6627B00DA11D661F829F2227B00D52
:1027D000A11D621F739FB00DA11D621F839FA00DDD
:1027E000611D221F749F3327A00D611D231F849F2D
:1027F000600D211D822F762F6A2F11249F57504084
:102800009AF0F1F088234AF0EE0FFF1FBB1F661FFE
:10281000771F881F91505040A9F79E3F510580F0C7
:102820000C9464130C94AF135F3FE4F3983ED4F31D
:10283000869577956795B795F795E7959F5FC1F76B
:10284000FE2B880F911D9695879597F908950E9404
:102850004013880B990B0895A1E21A2EAA1BBB1BEB
:10286000FD010DC0AA1FBB1FEE1FFF1FA217B3075C
:10287000E407F50720F0A21BB30BE40BF50B661F72
:10288000771F881F991F1A9469F760957095809536
:1028900090959B01AC01BD01CF010895052E97FBDA
:1028A0001EF400940E94651457FD07D00E942C145A
:1028B00007FC03D04EF40C94651450954095309568
:1028C00021953F4F4F4F5F4F08959095809570959C
:1028D00061957F4F8F4F9F4F0895EE0FFF1F05901B
:0A28E000F491E02D0994F894FFCF65
:1028EA00780178010000000019027901A601660248
:1028FA00D701B501C90100000000E6047901870289
:10290A0086026E616E00696E66006F7666000D0A59
:10291A00004D656469646F72206465007472616E4B
:10292A00736973746F72657300636F6E6563746144
:10293A00207475007472616E736973746F72004CDF
:10294A007565676F2070726573696F6E6100656C7B
:10295A0020626F746F6E005472616E736973746F64
:10296A007200646573636F6E65637461646F004EB1
:10297A00504E002020564431203A00204E504E201E
:10298A002043424500204942203D20007541002055
:10299A004943203D20006D41002042203D20004255
:1029AA003D0020566166203D20007661663D20008C
:1029BA00204E504E202045424300504E50002020C9
:1029CA00564432203A0020504E50202045424300BF
:0A29DA0020504E50202043424500DB
:00000001FF
